:020000040800F2
:1000000000200020D5110008691100086B110008BC
:1000100000000000000000000000000000000000E0
:100020000000000000000000000000006D1100084A
:1000300000000000000000006F11000871110008AE
:100040004512000800000000451200084512000893
:100050004512000845120008451200084512000824
:100060000000000045120008451200084512000873
:100070004512000845120008000000004512000863
:100080000000000000000000000000000000000070
:1000900045120008000000000000000045120008A2
:1000A00000000000451200080000000000000000F1
:1000B0004512000845120008000000000000000082
:1000C00010B5064C2378002B07D1054B002B02D02E
:1000D000044800E000BF0123237010BD040000208D
:1000E00000000000A0120008044B10B5002B03D044
:1000F0000349044800E000BF10BDC04600000000F6
:1001000008000020A0120008002243088B4274D38C
:1001100003098B425FD3030A8B4244D3030B8B4208
:1001200028D3030C8B420DD3FF22090212BA030C11
:100130008B4202D31212090265D0030B8B4219D3F2
:1001400000E0090AC30B8B4201D3CB03C01A524112
:10015000830B8B4201D38B03C01A5241430B8B425A
:1001600001D34B03C01A5241030B8B4201D30B0343
:10017000C01A5241C30A8B4201D3CB02C01A52416A
:10018000830A8B4201D38B02C01A5241430A8B422D
:1001900001D34B02C01A5241030A8B4201D30B0216
:1001A000C01A5241CDD2C3098B4201D3CB01C01A30
:1001B000524183098B4201D38B01C01A524143093A
:1001C0008B4201D34B01C01A524103098B4201D328
:1001D0000B01C01A5241C3088B4201D3CB00C01A95
:1001E000524183088B4201D38B00C01A524143080D
:1001F0008B4201D34B00C01A5241411A00D2014632
:10020000524110467047FFE701B5002000F006F8A4
:1002100002BDC0460029F7D076E770477047C04658
:10022000FA210A4B70B5890005001868FFF76CFFCA
:1002300000F078F904000120002C05D102382200DA
:10024000290000F03FF9200070BDC04600000020EA
:100250004023084A10B5116800200B431360FFF7D4
:10026000DFFF041E03D100F071FF200010BD012448
:10027000FBE7C04600200240024A136801331360C6
:100280007047C04620000020014B18687047C046E8
:100290002000002070B504000120002C19D0636DEF
:1002A000002B06D122005032A3652000137000F00D
:1002B0008DFD636DDB0604D404222368986810402A
:1002C00008D01023626D012013436365002350346E
:1002D000237070BD626D5549114002220A43626568
:1002E000032299681140524A012902D11D680D422A
:1002F00019D180266568F60569004908B14203D026
:10030000802109068D4276D1196989008908196111
:1003100019690D431D611825D968A943D960D968A9
:10032000A5682943D9601168424D29401160616B6D
:1003300015684906294311608022996852051142C7
:1003400002D199680A439A60DA683B490A402169F8
:10035000DA60DD68E268022900D10420266B611CA6
:1003600032432A43A569C97FAD032A43E569ED03FA
:100370002A434D032A4325002C352D786D002A434E
:100380000243C220DA60626AFF30824204D0A56A6A
:10039000D8682A430243DA60A21CD27F012A06D120
:1003A000002934D18022D96852020A43DA60E16B15
:1003B0001A69012933D12148656C02401A61226C07
:1003C00018692A43A56C2A4302431A611A6911432A
:1003D000196107215A6900208A435A615A69A16B41
:1003E0000A435A610322A065636D93431A000123F7
:1003F000134363656DE71969114E89008908196116
:1004000011683140116011680D43156083E72021A8
:10041000606D01436165A16D0A43A265C7E70121D3
:100420000A42D6D01A698A431A61D2E7FDFEFFFF5D
:1004300008270140FFFFFFFD1902FEFF03FCFFFF3D
:10044000FFFFC3FF30B504005034237805000220BD
:10045000012B0CD001232A6823709068400707D530
:100460002022696D18000A436A650022227030BD9F
:1004700080204D68104B096880029D420FD0956A1C
:100480004B035B0B2B439362014205D080230B4A45
:10049000DB0311680B43136000202070E7E7936AC9
:1004A0004D036D0BAB4393620142F5D0034A0449FF
:1004B00013680B40EFE7C046011000000827014019
:1004C000FFFFBFFF70B58901002814DA0F23C0B207
:1004D0000340083B114A9B089B009B1803221040D5
:1004E0009040FC321500114085408140DC69AC43EE
:1004F0002143D96170BD032583082840A840FC35FD
:100500002E00074A9B009B18C0228640294081404C
:1005100092009C58B44321439950EBE700ED00E072
:1005200000E100E0094A431E012093420DD8C0219A
:10053000074A08485360036A09061B021B0A0B435B
:10054000036200200723906013607047FFFFFF00E5
:1005500010E000E000ED00E0F0B5504A0B688218B2
:10056000541EA24185B00193002305320392019AE3
:10057000DA4001D105B0F0BD01259D40019A2A4025
:10058000009200D188E04A68944610226446944361
:100590002200013C022A1FD107240F271C40A4007F
:1005A000A740DA0892008218166ABE430F69A74076
:1005B0003E43166203245E00B4408268A243CC68C6
:1005C000B440224382606246D206D20F9A40446809
:1005D000AC432243426001E0012CEBD90324250007
:1005E0005E00B5406246ED432240B24007682F40AE
:1005F0003A430260C26815408A68B24015436246B9
:10060000C560D20048D50127254D1C406A6BA40067
:100610003A436A63234A9D08AD00AD180F22A240F9
:10062000AE6896430296A0260022F605B04208D096
:100630001D4E3A00B04204D01C4F9218B84200D070
:10064000039AA2406746029C2243AA60184A009C73
:100650001668009DE4433543FF0301D4350025406F
:10066000674615605668009D3543BF0301D43500C9
:100670002540674655609668009D3543FF0201D4CA
:100680003500254067469560D568009E2E43BF0221
:1006900001D425402E00D660013368E700E4FFAFA7
:1006A000001002400000014000040050000800500B
:1006B00000040140002A01D0816170478162FCE79B
:1006C0000C22184B10B5D9680A40082A26D00C2AEB
:1006D00006D0042A1AD11B68DB0621D4124810BDAB
:1006E0008A021248120F825C0902D868890F013110
:1006F000C00304D50E485043FFF706FDEFE71B6823
:10070000DB0601D50B48F6E70748F4E780205B6875
:1007100000021B045B0F01339840E0E70448DEE76A
:100720000448DCE7001002400024F400C81200086E
:1007300000127A0000093D00F0B5050087B00028DE
:1007400002D1012007B0F0BD0C23C04CE668E2687E
:100750001E4080235B021A4001920268D2073DD4FA
:100760002B689B0700D583E02B68DB0628D5002E7D
:1007700000D0DDE023689B0502D5AB69002BE0D0FB
:100780006268B3492B6A0A401A4362606168EA6989
:100790000902090A12060A43626080225B0B0133D8
:1007A00012029A401300E16800200A06A949120FBC
:1007B0008A5CD340A84A1360FFF732FD0028C1D1FC
:1007C0002B681B0700D5EAE02B685B0700D50CE11E
:1007D0006B6A002B00D091E10020B3E7082E04D013
:1007E0000C2E09D1019A002A06D023689B03B7D5A5
:1007F0006B68002BB4D1A4E76A689A4211D12268D1
:1008000013432360FFF740FD070080222368920214
:100810001342A5D1FFF738FDC01B6428F5D903208A
:1008200090E7A021C9028A4205D180222168D20224
:100830000A432260E3E7216888480140216021687B
:100840000B400593059B864923680B402360002AD3
:10085000D8D1FFF719FD07008022236892021342C6
:1008600000D17DE7FFF710FDC01B6428F4D9D6E75F
:100870002022EB68134203D0216893431143216087
:10088000042E04D00C2E25D1019A002A22D12268F0
:10089000520702D5002B00D153E761682A697148DD
:1008A000120201400A430921626022688A4313430D
:1008B0002360FFF705FFE368664A1B061B0FD35C46
:1008C000D840654B18600020FFF7AAFC002800D133
:1008D0004AE737E7002B19D0092122688A431343DE
:1008E0002360FFF7D1FC070004222368134207D0DE
:1008F00062682B695B491B020A401343636033E75C
:10090000FFF7C2FCC01B0228EED988E7012223684A
:1009100093432360FFF7B8FC0700042223681342C7
:1009200000D121E7FFF7B0FCC01B0228F5D976E71C
:10093000AB69002B20D0802322685B001343236027
:10094000FFF7A2FC070080222368920013420DD01B
:1009500063683F4A13402A6A134363606268EB6925
:1009600012021B06120A1343636029E7FFF78CFC8F
:10097000C01B0228E7D952E723683B4A1340236093
:10098000FFF782FC0700802223689200134200D107
:1009900016E7FFF779FCC01B0228F4D93FE76A6924
:1009A0000123002A10D0226D13432365FFF76CFC4E
:1009B00007000222236D134200D005E7FFF764FC15
:1009C000C01B0228F5D92AE7226D9A432265FFF75A
:1009D0005BFC07000222236D134200D1F4E6FFF70F
:1009E00053FCC01B0228F5D919E780230021A26B14
:1009F0005B0501911A4204D1A26B1343A363012347
:100A000001938022194F52003B68134208D0802284
:100A1000AB68520093422BD1226D134323654CE007
:100A200080223B68520013433B60FFF72DFC80237C
:100A30005B00029003933B68039A1342E7D1FFF7F0
:100A400023FC029BC01A6428F5D9E8E60010024096
:100A5000FF1FFFFFB812000800000020FFFFFEFF8D
:100A6000FFFFFBFFFFE0FFFFFFFEFFFF0070004006
:100A7000002B16D1236D534A13402365236D524A30
:100A800013402365FFF700FC07008022236D9200CE
:100A900013422AD0FFF7F8FB4C4BC01B9842F4D905
:100AA000BDE6A021C9008B420BD18023216DDB0064
:100AB0000B432365236D1A432265FFF7E5FB07000F
:100AC0000EE0236D3F4A13402365236D3E4A1340D9
:100AD000A4E7FFF7D9FB3D4BC01B984200D99EE627
:100AE0008022236D92001342F3D0019B012B00D092
:100AF0006EE6A36B364A1340A36369E60C2E43D01F
:100B0000344A022B2ED12368802613402360FFF73E
:100B1000BBFB0700B604236833421DD1E96AAB6A08
:100B2000E2680B432C490A4013432A6B8025134388
:100B3000E360802322685B0413432360FFF7A4FB78
:100B40000600AD0423682B4200D045E6FFF79CFB6E
:100B5000801B0228F6D962E6FFF796FBC01B02282D
:100B6000D9D95CE62368802513402360FFF78CFB0E
:100B70000600AD0423682B4200D12DE6FFF784FB6D
:100B8000801B0228F6D94AE61800012B00D1D9E5CE
:100B90008022E368A96A52021A4001208A4200D0EA
:100BA000D0E5F022E96A92031A408A4200D0C9E5F2
:100BB000C02000040340286B181A431E9841C0B29D
:100BC000C0E5C046FFFEFFFFFFFBFFFF88130000EC
:100BD000FFFFFFEFFFFFFFFEFFFF02FFF7B5061E5F
:100BE000019101D10120FEBD0122514C01992368E0
:100BF00013408B4227D3326893072FD4D30735D4C1
:100C00000123226801991A40914200D281E03268A2
:100C1000484C530700D584E0130706D5E2683369D2
:100C20004549DB000A401343E360FFF749FDE368F1
:100C3000424A1B061B0FD35CD840414B1860002072
:100C4000FFF7EEFACFE72368019993430B43236044
:100C500023681340019A9A42C4D1CCE7F020354969
:100C6000CB688343B0680343CB60C7E7314D7268FC
:100C70002B68022A19D19B03B4D50321EB688B435F
:100C80001343EB60FFF700FB73680700022B19D1D9
:100C90000C22EB681340082BB2D0FFF7F5FA294B72
:100CA000C01B9842F4D903209DE7032A02D19B017F
:100CB000E3D497E7012A02D15B07DED492E79B05D4
:100CC000DBD48FE7032B0BD10C22EB68134093424C
:100CD00096D0FFF7D9FA1B4BC01B9842F4D9E2E734
:100CE000012B10D00C22EB68134289D0FFF7CCFA0D
:100CF000144BC01B9842F5D9D5E7FFF7C5FA114B45
:100D0000C01B9842CFD80C22EB681340042BF4D1BF
:100D100076E722689A43226022681A4200D061E78F
:100D200075E7E36808490B40F1680B43E36073E73C
:100D30000020024000100240FFC7FFFFB812000869
:100D40000000002088130000FFF8FFFF13B5082201
:100D50000021684600F09CFAC022194C194B12067B
:100D600062600122236000232261A218D377A21CB3
:100D7000D377C222FF32626222002C321370042227
:100D80002000E363A360A363E360A3626261236363
:100D9000A3616363E361FFF77DFA002801D000F0EF
:100DA000D3F9094B69460093802320005B0101932E
:100DB000FFF748FB002801D000F0C6F913BDC0467C
:100DC00024000020002401400800000C10B504009D
:100DD00086B01422002101A800F05AFA0E4B2268B6
:100DE0009A4216D180220D4B9200596BA0200A43E3
:100DF00001215A63DA6AC0050A43DA62DB6A0B40F2
:100E00000093009B082301A90193053B0293FFF780
:100E1000A3FB06B010BDC0460024014000100240F4
:100E2000F0B58BB01422002105A800F031FA04209F
:100E300001250226354B364CD96A364F0143D9621B
:100E4000DA6A02400192019AD96A7C300143D96280
:100E5000DA6A210002400292029ADA6A2E482A4394
:100E6000DA62DA6A2A400392039ADA6A3243DA6271
:100E7000DB6A002233400493049BFFF71BFC310024
:100E800038000022FFF716FCA02000222349C005ED
:100E9000FFF710FC002222492248FFF70BFC0594C3
:100EA000002405A91C48069507940894FFF754FBF5
:100EB00005A93800059506940794FFF74DFB05A991
:100EC00038000596069507940894FFF745FBA02087
:100ED000124B05A9C0050593069507940894FFF7E2
:100EE0003BFB0F4B05A90F48059306950794089403
:100EF000FFF732FB802305A91B010A4805930694DE
:100F00000794FFF729FB0BB0F0BDC046001002406C
:100F100001E00000001C005000080050F79B00009A
:100F2000FFF700000004005010B592B034220021F9
:100F300005A800F0ADF914220021684600F0A8F9D8
:100F40001049114A0B6800241A4080231B011343E7
:100F50000B60102305930F3B0B93C02305A81B02C6
:100F60000D930C940E94FFF7E7FB0F2321006846C6
:100F700000930194029403940494FFF72FFE12B09F
:100F800010BDC04600700040FFE7FFFFF7B5FFF758
:100F90005FF9FFF7C9FFFFF743FFFFF7D7FE002315
:100FA000A0258026802701240093644BED05019342
:100FB00036027F01220002212800FFF77BFB22007E
:100FC00031005F48FFF776FB8021220089015C48F1
:100FD000FFF770FB220039002800FFF76BFB802130
:100FE000220009012800FFF765FB22003100554867
:100FF000FFF760FB8021220089015248FFF75AFB6E
:10100000220039004F48FFF755FB0023019A934215
:1010100000D288E0002202212800FFF74BFB0022CB
:1010200031004748FFF746FB8021002289014448F0
:10103000FFF740FB002239002800FFF73BFB80212F
:10104000002209012800FFF735FB002231003D484E
:10105000FFF730FB8021002289013A48FFF72AFB85
:10106000002239003748FFF725FB22002100280025
:10107000FFF720FB220031003148FFF71BFB220065
:1010800021002F48FFF716FB220031002800FFF750
:1010900011FB8021220089002800FFF70BFB802133
:1010A000220049002800FFF705FB80212200C9012A
:1010B0002448FFF7FFFA80212200C9002148FFF7EA
:1010C000F9FA0023019A934232D32100280000222A
:1010D000FFF7F0FA80210022C9011948FFF7EAFA68
:1010E000210000221648FFF7E5FA3100280000220F
:1010F000FFF7E0FA8021280000228900FFF7DAFAE2
:101100008021280000224900FFF7D4FA8021002224
:10111000C9010C48FFF7CEFA80210022C900094816
:10112000FFF7C8FA46E7009A0133013200926DE7F3
:10113000009A013301320092C4E7C046400D03001B
:101140000008005000040050704700000122054BC9
:10115000596B0A435A638022996B52050A439A637A
:101160007047C046001002407047FEE77047704766
:1011700010B5FFF781F810BD8022104B520019689E
:101180000A431A60DA680E490A40DA601A680D49A3
:101190000A4001211A609A688A439A601A680A49CB
:1011A0000A401A60DA6809490A40DA6000221A61C6
:1011B0008022074B12059A607047C046001002401B
:1011C0000C40FF88F6FFF6FEFFFFFBFFFFFF02FF6C
:1011D00000ED00E01348854604200168090E1F2237
:1011E000914205D1104801210160104800210160A1
:1011F000002103E00E4B5B58435004310D480E4B69
:1012000042189A42F6D30D4A02E0002313600432DA
:101210000B4B9A42F9D3FFF7AFFF00F015F8FFF739
:10122000B5FEFEE70020002034100240000001401F
:10123000DC12000800000020040000200400002050
:1012400080000020FEE7000070B500260C4D0D4C1C
:10125000641BA410A64209D1002600F021F80A4D13
:101260000A4C641BA410A64205D170BDB300EB5814
:1012700098470136EEE7B300EB5898470136F2E79E
:10128000D4120008D4120008D4120008D8120008A2
:1012900003008218934200D1704719700133F9E7B7
:1012A000F8B5C046F8BC08BC9E467047F8B5C046C5
:0812B000F8BC08BC9E46704723
:1012B80000000000000000000102030406070809FE
:0C12C800030406080C1018203000000081
:0412D400E900000825
:0412D800C100000849
:0412DC0000002000EE
:04000005080011D509
:00000001FF
