:020000040800F2
:1000000000200020051C0008BD180008BF180008CB
:1000100000000000000000000000000000000000E0
:10002000000000000000000000000000C1180008EF
:100030000000000000000000C3180008C5180008F8
:10004000751C000800000000751C0008751C0008E5
:10005000751C0008751C0008751C0008751C00083C
:1000600000000000751C0008751C0008751C0008C5
:10007000751C0008751C000800000000751C0008B5
:100080000000000000000000000000000000000070
:10009000751C00080000000000000000751C00082E
:1000A00000000000751C00080000000000000000B7
:1000B000751C0008751C000800000000000000000E
:1000C00010B5064C2378002B07D1054B002B02D02E
:1000D000044800E000BF0123237010BD040000208D
:1000E00000000000D01C0008044B10B5002B03D00A
:1000F0000349044800E000BF10BDC04600000000F6
:1001000008000020D01C0008002243088B4274D352
:1001100003098B425FD3030A8B4244D3030B8B4208
:1001200028D3030C8B420DD3FF22090212BA030C11
:100130008B4202D31212090265D0030B8B4219D3F2
:1001400000E0090AC30B8B4201D3CB03C01A524112
:10015000830B8B4201D38B03C01A5241430B8B425A
:1001600001D34B03C01A5241030B8B4201D30B0343
:10017000C01A5241C30A8B4201D3CB02C01A52416A
:10018000830A8B4201D38B02C01A5241430A8B422D
:1001900001D34B02C01A5241030A8B4201D30B0216
:1001A000C01A5241CDD2C3098B4201D3CB01C01A30
:1001B000524183098B4201D38B01C01A524143093A
:1001C0008B4201D34B01C01A524103098B4201D328
:1001D0000B01C01A5241C3088B4201D3CB00C01A95
:1001E000524183088B4201D38B00C01A524143080D
:1001F0008B4201D34B00C01A5241411A00D2014632
:10020000524110467047FFE701B5002000F006F8A4
:1002100002BDC0460029F7D076E770477047C04658
:10022000F0B557464E46DE464546E0B5440243002B
:10023000C60F83B00F1C640A1B0EB24653D0FF2BAF
:1002400027D08022E400D20414437F2252429046F9
:100250009844002399469B467D027800FB0F6D0A67
:10026000000E009324D0FF2846D080230021ED000B
:10027000DB041D437F384746381A4F460F43BF0003
:10028000B9463300009A874F53404A46BA58019303
:100290009746002C4ED108239946F7339846FD3BEC
:1002A0009B467D027800FB0F6D0A000E0093DAD1A9
:1002B000002D26D1002001213300009A7A4F5340AF
:1002C0004246101A4A460A439200BA581D00974601
:1002D000009B2C009A468B465B46022B31D153463D
:1002E000FF21002438E0002C17D104239946002375
:1002F000984601339B46AFE7FF20002D0BD102212A
:10030000DAE7280000F044FA431F9D4076235B4261
:10031000181A0021AFE70321ADE7200000F038FAFA
:10032000431F9C4076235B421B1A98460023994644
:100330009B4691E70C239946F3339846FC3B9B463A
:100340008AE7032B00D1A5E05546012B00D081E0C0
:100350000123002100242B406402C905600ADB0749
:100360000843184303B03CBC90469946A246AB46AE
:10037000F0BD80240023E403FF21EDE7FF210024EA
:10038000EAE70123591A1B2966DD019A134000216F
:100390000024E1E78023DB031C4238D01D4251D00A
:1003A0001C436402640A3300FF21D5E763016C013A
:1003B000A3423BD21B260021013801251F00490022
:1003C0005B00002F01DB9C4201D81B1B2943013E2F
:1003D000002EF3D11C00631E9C410C4301007F31B1
:1003E0000029CEDD630704D00F232340042B00D067
:1003F0000434230103D501002C4B80311C40FE291D
:100400000DDD0123019AFF2113400024A4E780237E
:10041000DB031C436402640A3300FF219CE70123D1
:10042000019AA401640AC9B2134095E71B1B1A265E
:100430000121C2E7009B8B469A4600244CE76302E9
:10044000E5D500258024E4032C436402640A009B64
:10045000FF2181E70195C1E723002020CB40411A0D
:100460008C40611E8C411C43630704D00F23234042
:10047000042B00D00434630105D50123019A012126
:100480001340002468E70123019AA401640A134081
:10049000002161E78023DB031C436402640A5346A6
:1004A000FF2159E7E81C0008281D0008FFFFFFF79F
:1004B000F8B557464E464546DE46E0B5470246008B
:1004C00088467F0A360EC40F002E47D0FF2E24D058
:1004D000FB008027FF041F43002399469A467F3E76
:1004E00043465D025800DB0F6D0A000E984643D06C
:1004F000FF283BD0EB0080250022ED041D437F3810
:100500003618731C41469B464B46614013430F2BE4
:1005100064D875489B00C3589F46002F42D10823DA
:100520009946063BFF269A46DAE74146022A28D03A
:10053000032A00D1CEE0012A00D0ACE01140002017
:100540000022CCB24002D205400AE4071043204307
:100550003CBC90469946A246AB46F8BD002F15D14B
:1005600004239946033B00269A46B9E7FF2002225E
:10057000002DC5D00322C3E7002D19D10020012290
:10058000BEE70124FF220C400020DBE7380000F02A
:10059000FFF87626431F9F4000237642361A99467D
:1005A0009A469DE70C239946093BFF269A4697E712
:1005B000280000F0EDF8431F9D4076235B42181A97
:1005C00000229DE780200024C003FF22BAE73D00FF
:1005D0005246ABE73D0021005246A7E73B0C9C4644
:1005E0002A04120C2B0C1400604665463F043F0C95
:1005F0007C4342435D437B43270C9B18FF18BA4260
:1006000003D980235B029C46654424043A04240CED
:10061000121993015C1EA3413F0C920E7D191A43DF
:10062000AD0115432B0104D501235E466A081D4028
:10063000154332007F32002A25DD6B0704D00F23DB
:100640002B40042B00D004352B0103D53200274B5F
:1006500080321D40FE2A94DC0124A801400AD2B257
:100660000C406FE78020C003074207D0054205D148
:1006700028434002400A4446FF2263E738434002D1
:10068000400AFF225EE70124A31A1B2B05DD0C4064
:100690000022002056E75E46CBE72A002020DA4001
:1006A000C31A9D402B005D1EAB4113435A0704D073
:1006B0000F221A40042A00D004335A0104D5012421
:1006C00001220C4000203DE701249B01580A0C4008
:1006D000002237E780200124C00328434002400A5B
:1006E0000C40FF222EE7C046681D0008FFFFFFF701
:1006F00070B5002830D0C317C4185C40C50F200067
:1007000000F046F89E231B1A962B0DDC9622D21A77
:1007100094402A006402640ADBB26402DB05600ACA
:10072000D2071843104370BD992B19DC9922D21AB5
:10073000002A29DD94402200144C1440510704D0B3
:100740000F210A40042A00D00434620113D4A4010A
:10075000640ADBB22A00E0E7002200230024DCE781
:1007600005222100121AD140B922D21A9440621EE9
:1007700094410C43DAE7054B2A001C409F23A40157
:100780001B1A640ADBB2C8E72200D5E7FFFFFFFBB4
:100790001C2101231B04984201D3000C10391B0AB1
:1007A000984201D3000A08391B09984201D3000975
:1007B000043902A2105C40187047C04604030202CC
:1007C000010101010000000000000000FA210A4BB5
:1007D00070B5890005001868FFF796FC00F01AFB59
:1007E00004000120002C05D102382200290000F06D
:1007F000E1FA200070BDC046000000204023084AF6
:1008000010B5116800200B431360FFF7DFFF041ED3
:1008100003D101F045F8200010BD0124FBE7C046DC
:1008200000200240024A1368013313607047C0463B
:1008300020000020014B18687047C04620000020AF
:100840000321036870B5040098680840012801D0AE
:10085000002070BD1A680242FAD005229D6815403A
:10086000012D19D10222986802439A601960FFF79E
:10087000E1FF060023689B682B42E9D0FFF7DAFF0F
:10088000801B0A28F6D91023626D0120134363658B
:10089000A36D1D43A565DCE71023626D13436365FB
:1008A000A36D0343A365D4E70422036870B5996878
:1008B0000400114201D1002070BD9968114206D098
:1008C0009A68920703D4102299680A439A60FFF746
:1008D000B1FF0425060023689B682B42EBD0FFF78D
:1008E000A9FF801B0A28F6D910230120626D13434B
:1008F0006365A36D0343A365DEE7000073B50321C1
:10090000036804009A680A40012A11D1196811424B
:100910000ED0002076BD10230120626D1343636565
:10092000A36D0343A365F5E7019B013B01930DE034
:100930009968134A1142EED1012299680A439A60DC
:10094000104B11491868FFF7DFFB0190019B002B4A
:10095000EAD1FFF76FFF0125060023681B682B42D1
:10096000D7D1FFF767FF801B0A28F6D91023626DE5
:10097000012013436365A36D2B43A365CAE7C046FB
:10098000170000800000002040420F0070B50400F6
:100990000120002C19D0636D002B06D122005032AB
:1009A000A3652000137000F08BFE636DDB0604D49A
:1009B000042223689868104008D01023626D01203B
:1009C0001343636500235034237070BD626D554935
:1009D000114002220A436265032299681140524A7B
:1009E000012902D11D680D4219D180266568F605DE
:1009F00069004908B14203D0802109068D4276D1B1
:100A0000196989008908196119690D431D61182543
:100A1000D968A943D960D968A5682943D960116804
:100A2000424D29401160616B1568490629431160E8
:100A3000802299685205114202D199680A439A604E
:100A4000DA683B490A402169DA60DD68E268022918
:100A500000D10420266B611C32432A43A569C97F5B
:100A6000AD032A43E569ED032A434D032A432500DC
:100A70002C352D786D002A430243C220DA60626A69
:100A8000FF30824204D0A56AD8682A430243DA6064
:100A9000A21CD27F012A06D1002934D18022D96834
:100AA00052020A43DA60E16B1A69012933D1214805
:100AB000656C02401A61226C18692A43A56C2A43AE
:100AC00002431A611A691143196107215A6900200A
:100AD0008A435A615A69A16B0A435A610322A0658D
:100AE000636D93431A000123134363656DE719692E
:100AF000114E89008908196111683140116011682F
:100B00000D43156083E72021606D01436165A16D90
:100B10000A43A265C7E701210A42D6D01A698A436F
:100B20001A61D2E7FDFEFFFF08270140FFFFFFFD2E
:100B30001902FEFF03FCFFFFFFFFC3FF036870B550
:100B40009B68040002205B071AD4250050352B78DF
:100B5000012B15D001232B70E369012B11D1636D9B
:100B60000B4A00201A4080235B0013431C2263655C
:100B70002368A06528701A609968183A0A439A6039
:100B800070BD2000FFF7BAFE0028F9D1E7E7C046A4
:100B9000FEF0FFFF70B506005036337804000220E7
:100BA000012B12D0012520003570FFF77DFE0028B3
:100BB00009D12000FFF744FE002804D1636D034AE9
:100BC00013401D4365650023337070BDFEFEFFFFBB
:100BD000F8B5456904000E00082D0DD0036801200A
:100BE000DB680C25034207D02023626D5034134389
:100BF000636000232370F8BDFFF71CFE0700236825
:100C00001A682A4224D08022616D92000A436265EC
:100C1000C022D9681201114213D1621CD27F002A6E
:100C20000FD11A6812070CD59A68520723D40C21E9
:100C30005A688A435A60626D1349114001220A437F
:100C400062650020A2698242D5D10C221A60D2E7E7
:100C5000721CD5D0002E08D10423626D503413438A
:100C60006360002303202370C5E7FFF7E3FDC01B8B
:100C70008642C4D2F0E72022616D0A4362650122F8
:100C8000A16D0A43A265DCE7FEFEFFFF0368186C56
:100C90007047000030B5040050342378050002206E
:100CA000012B0CD001232A6823709068400707D5D8
:100CB0002022696D18000A436A650022227030BD47
:100CC00080204D68104B096880029D420FD0956AC4
:100CD0004B035B0B2B439362014205D080230B4AED
:100CE000DB0311680B43136000202070E7E7936A71
:100CF0004D036D0BAB4393620142F5D0034A0449A7
:100D000013680B40EFE7C0460110000008270140C0
:100D1000FFFFBFFFF8B5050050352B780400022017
:100D2000012B3FD0012303222B70236898681040C9
:100D3000012802D11A68024235D1626D1C49114066
:100D400002220A4303216265DE68DA688A43DA60B8
:100D50008022996812060A439A60FFF76BFD07002C
:100D600023689A68002A0EDB0322D96816400E43D6
:100D7000DE60636D002093431A0001231343636513
:100D800000232B700EE0FFF755FDC01B0A28E7D9A2
:100D90001222636D012093431A00102313436365ED
:100DA00000232B70F8BD2023626D13436365E7E7D2
:100DB000FDFEFFFF70B58901002814DA0F23C0B2D1
:100DC0000340083B114A9B089B009B1803221040DC
:100DD0009040FC321500114085408140DC69AC43F5
:100DE0002143D96170BD032583082840A840FC3504
:100DF0002E00074A9B009B18C02286402940814054
:100E000092009C58B44321439950EBE700ED00E079
:100E100000E100E0094A431E012093420DD8C021A1
:100E2000074A08485360036A09061B021B0A0B4362
:100E3000036200200723906013607047FFFFFF00EC
:100E400010E000E000ED00E0F0B5504A0B688218B9
:100E5000541EA24185B00193002305320392019AEA
:100E6000DA4001D105B0F0BD01259D40019A2A402C
:100E7000009200D188E04A68944610226446944368
:100E80002200013C022A1FD107240F271C40A40086
:100E9000A740DA0892008218166ABE430F69A7407D
:100EA0003E43166203245E00B4408268A243CC68CD
:100EB000B440224382606246D206D20F9A40446810
:100EC000AC432243426001E0012CEBD9032425000E
:100ED0005E00B5406246ED432240B24007682F40B5
:100EE0003A430260C26815408A68B24015436246C0
:100EF000C560D20048D50127254D1C406A6BA4006F
:100F00003A436A63234A9D08AD00AD180F22A24000
:100F1000AE6896430296A0260022F605B04208D09D
:100F20001D4E3A00B04204D01C4F9218B84200D077
:100F3000039AA2406746029C2243AA60184A009C7A
:100F40001668009DE4433543FF0301D43500254076
:100F5000674615605668009D3543BF0301D43500D0
:100F60002540674655609668009D3543FF0201D4D1
:100F70003500254067469560D568009E2E43BF0228
:100F800001D425402E00D660013368E700E4FFAFAE
:100F90000010024000000140000400500008005012
:100FA00000040140002A01D0816170478162FCE7A2
:100FB0000C22184B10B5D9680A40082A26D00C2AF2
:100FC00006D0042A1AD11B68DB0621D4124810BDB2
:100FD0008A021248120F825C0902D868890F013117
:100FE000C00304D50E485043FFF78EF8EFE71B68A7
:100FF000DB0601D50B48F6E70748F4E780205B687D
:1010000000021B045B0F01339840E0E70448DEE771
:101010000448DCE7001002400024F400B81D00087A
:1010200000127A0000093D00F0B5050087B00028E5
:1010300002D1012007B0F0BD0C23C04CE668E26885
:101040001E4080235B021A4001920268D2073DD401
:101050002B689B0700D583E02B68DB0628D5002E84
:1010600000D0DDE023689B0502D5AB69002BE0D002
:101070006268B3492B6A0A401A4362606168EA6990
:101080000902090A12060A43626080225B0B0133DF
:1010900012029A401300E16800200A06A949120FC3
:1010A0008A5CD340A84A1360FFF790FB0028C1D1A7
:1010B0002B681B0700D5EAE02B685B0700D50CE125
:1010C0006B6A002B00D091E10020B3E7082E04D01A
:1010D0000C2E09D1019A002A06D023689B03B7D5AC
:1010E0006B68002BB4D1A4E76A689A4211D12268D8
:1010F00013432360FFF79EFB0700802223689202C0
:101100001342A5D1FFF796FBC01B6428F5D9032035
:1011100090E7A021C9028A4205D180222168D2022B
:101120000A432260E3E72168884801402160216882
:101130000B400593059B864923680B402360002ADA
:10114000D8D1FFF777FB0700802223689202134271
:1011500000D17DE7FFF76EFBC01B6428F4D9D6E70A
:101160002022EB68134203D021689343114321608E
:10117000042E04D00C2E25D1019A002A22D12268F7
:10118000520702D5002B00D153E761682A697148E4
:10119000120201400A430921626022688A43134314
:1011A0002360FFF705FFE368664A1B061B0FD35C4D
:1011B000D840654B18600020FFF708FB002800D1DD
:1011C0004AE737E7002B19D0092122688A431343E5
:1011D0002360FFF72FFB070004222368134207D088
:1011E00062682B695B491B020A401343636033E763
:1011F000FFF720FBC01B0228EED988E701222368F5
:1012000093432360FFF716FB070004222368134271
:1012100000D121E7FFF70EFBC01B0228F5D976E7C6
:10122000AB69002B20D0802322685B00134323602E
:10123000FFF700FB070080222368920013420DD0C5
:1012400063683F4A13402A6A134363606268EB692C
:1012500012021B06120A1343636029E7FFF7EAFA3A
:10126000C01B0228E7D952E723683B4A134023609A
:10127000FFF7E0FA0700802223689200134200D1B2
:1012800016E7FFF7D7FAC01B0228F4D93FE76A69CF
:101290000123002A10D0226D13432365FFF7CAFAF9
:1012A00007000222236D134200D005E7FFF7C2FAC0
:1012B000C01B0228F5D92AE7226D9A432265FFF761
:1012C000B9FA07000222236D134200D1F4E6FFF7BA
:1012D000B1FAC01B0228F5D919E780230021A26BBF
:1012E0005B0501911A4204D1A26B1343A36301234E
:1012F00001938022194F52003B68134208D080228C
:10130000AB68520093422BD1226D134323654CE00E
:1013100080223B68520013433B60FFF78BFA802327
:101320005B00029003933B68039A1342E7D1FFF7F7
:1013300081FA029BC01A6428F5D9E8E60010024041
:10134000FF1FFFFFA81D000800000020FFFFFEFF99
:10135000FFFFFBFFFFE0FFFFFFFEFFFF007000400D
:10136000002B16D1236D534A13402365236D524A37
:1013700013402365FFF75EFA07008022236D920079
:1013800013422AD0FFF756FA4C4BC01B9842F4D9AF
:10139000BDE6A021C9008B420BD18023216DDB006B
:1013A0000B432365236D1A432265FFF743FA0700B9
:1013B0000EE0236D3F4A13402365236D3E4A1340E0
:1013C000A4E7FFF737FA3D4BC01B984200D99EE6D1
:1013D0008022236D92001342F3D0019B012B00D099
:1013E0006EE6A36B364A1340A36369E60C2E43D026
:1013F000344A022B2ED12368802613402360FFF746
:1014000019FA0700B604236833421DD1E96AAB6AB2
:10141000E2680B432C490A4013432A6B802513438F
:10142000E360802322685B0413432360FFF702FA22
:101430000600AD0423682B4200D045E6FFF7FAF919
:10144000801B0228F6D962E6FFF7F4F9C01B0228D8
:10145000D9D95CE62368802513402360FFF7EAF9B9
:101460000600AD0423682B4200D12DE6FFF7E2F918
:10147000801B0228F6D94AE61800012B00D1D9E5D5
:101480008022E368A96A52021A4001208A4200D0F1
:10149000D0E5F022E96A92031A408A4200D0C9E5F9
:1014A000C02000040340286B181A431E9841C0B2A4
:1014B000C0E5C046FFFEFFFFFFFBFFFF88130000F3
:1014C000FFFFFFEFFFFFFFFEFFFF02FFF7B5061E66
:1014D000019101D10120FEBD0122514C01992368E7
:1014E00013408B4227D3326893072FD4D30735D4C8
:1014F0000123226801991A40914200D281E03268AA
:10150000484C530700D584E0130706D5E2683369D9
:101510004549DB000A401343E360FFF749FDE368F8
:10152000424A1B061B0FD35CD840414B1860002079
:10153000FFF74CF9CFE72368019993430B432360EE
:1015400023681340019A9A42C4D1CCE7F020354970
:10155000CB688343B0680343CB60C7E7314D726803
:101560002B68022A19D19B03B4D50321EB688B4366
:101570001343EB60FFF75EF973680700022B19D184
:101580000C22EB681340082BB2D0FFF753F9294B1C
:10159000C01B9842F4D903209DE7032A02D19B0186
:1015A000E3D497E7012A02D15B07DED492E79B05DB
:1015B000DBD48FE7032B0BD10C22EB681340934253
:1015C00096D0FFF737F91B4BC01B9842F4D9E2E7DE
:1015D000012B10D00C22EB68134289D0FFF72AF9B7
:1015E000144BC01B9842F5D9D5E7FFF723F9114BEF
:1015F000C01B9842CFD80C22EB681340042BF4D1C7
:1016000076E722689A43226022681A4200D061E796
:1016100075E7E36808490B40F1680B43E36073E743
:101620000020024000100240FFC7FFFFA81D000875
:101630000000002088130000FFF8FFFF37B50825E1
:1016400000212A00684600F03BFB8022194C12035F
:10165000194B6260072223600023A263063A2261CD
:10166000A218D377A21CD377C222FF326262220073
:10167000A5602C328025137004226D012000E363E5
:10168000E360A36262612563A3616363E361FFF7C3
:101690007DF9002801D000F001F9084B69462000CF
:1016A00000930195FFF7F6FA002801D000F0F6F854
:1016B00037BDC04624000020002401400800000C73
:1016C00010B5040086B01422002101A800F0F8FA39
:1016D0000E4B22689A4216D180220D4B9200596B14
:1016E000A0200A4301215A63DA6AC0050A43DA627C
:1016F000DB6A0B400093009B082301A90193053B83
:101700000293FFF7A1FB06B010BDC04600240140C4
:1017100000100240F0B58BB01422002105A800F0A3
:10172000CFFA0420364B0125D96A364F0143D962DE
:10173000DA6A002402400192019AD96A7C3001439E
:10174000D9620221DA6A304E02400292029ADA6AC3
:1017500038002A43DA62DA6A2A400392039ADA6A84
:101760000A43DA62DB6A00220B4004932749049B98
:10177000FFF718FCC0212A0038000902FFF712FC0D
:10178000002203212248FFF70DFCA020002221495E
:10179000C005FFF707FC002230001F49FFF702FCDD
:1017A0001E4B05A938000593069507940894FFF78A
:1017B0004BFB032305A91648059306950794089447
:1017C000FFF742FBA020134B05A9C0050593069522
:1017D00007940894FFF738FB0F4B05A930000593D9
:1017E000069507940894FFF72FFB802305A91B019A
:1017F0003000059306940794FFF726FB0BB0F0BD6D
:1018000000100240000800500004005001200000B9
:10181000001C0050F79B0000FFF7000001E00000F3
:1018200030B593B03422002105A800F049FA142203
:101830000021684600F044FA0F49104A0B68002462
:101840001A4080231B0113430B60022301250593DB
:1018500005A80E33099308950E94FFF7E5FB0F23B7
:101860002100684600930195029403940494FFF7C5
:101870002DFE13B030BDC04600700040FFE7FFFFF3
:1018800010B5FEF7BBFFFFF7CBFFFFF743FFFFF7F6
:10189000D5FE00F077F800F09BF8FCE770470000F9
:1018A0000122054B596B0A435A638022996B5205FA
:1018B0000A439A637047C046001002407047FEE733
:1018C0007047704710B5FEF7ADFF10BD8022104B7A
:1018D000520019680A431A60DA680E490A40DA6051
:1018E0001A680D490A4001211A609A688A439A6071
:1018F0001A680A490A401A60DA6809490A40DA6037
:1019000000221A618022074B12059A607047C04678
:10191000001002400C40FF88F6FFF6FEFFFFFBFFC1
:10192000FFFF02FF00ED00E070B5134C2000FFF751
:1019300005F9012120004942FFF74AF9002806D0A5
:101940002000FFF727F9FFF779FE002070BD200087
:10195000FFF79CF9094D04000949E868FEF760FCAF
:10196000061CA0B2FEF7C4FE011C301CFEF7A0FD51
:10197000A968FEF755FCE9E724000020800000205C
:1019800000C07F4470B500210D48FFF7C3F9051E64
:10199000F9D1012000F01AF90A4CC1280AD101231B
:1019A000B638237000F01CF9A060072000F018F989
:1019B000E06070BD044B2570A360044BE360F8E762
:1019C00024000020800000207D20BB3E33335340A4
:1019D00013B50024FFF7A8FF784B012202217848B5
:1019E00000940193FFF7DEFA012275481100FFF71A
:1019F000D9FAA02001220221C005FFF7D3FA8021E5
:101A0000012209026F48FFF7CDFA802101228901E6
:101A10006C48FFF7C7FA8021A02001224901C005C8
:101A2000FFF7C0FA8021A02001220901C005FFF7BD
:101A3000B9FA8021012209026348FFF7B3FA802135
:101A4000012289016048FFF7ADFA80210122490196
:101A50005D48FFF7A7FA019A944200D2A4E0002261
:101A600002215748FFF79EFA002201215448FFF750
:101A700099FAA02000220221C005FFF793FA8021E5
:101A8000002209024F48FFF78DFA802100228901C8
:101A90004C48FFF787FA8021A02000224901C005A9
:101AA000FFF780FA8021A02000220901C005FFF77E
:101AB00079FA8021002209024348FFF773FA802156
:101AC000002289014048FFF76DFA80210022490178
:101AD0003D48FFF767FA0122A0201100C005FFF77B
:101AE00061FA80210122C9013648FFF75BFA012221
:101AF00034481100FFF756FA8021A0200122090284
:101B0000C005FFF74FFA8021A02001228900C005FF
:101B1000FFF748FA8021A02001224900C005FFF705
:101B200041FA80210122C9012748FFF73BFA8021B1
:101B30000122C9002448FFF735FA0023019A934295
:101B400037D3A02000220121C005FFF72BFA802106
:101B50000022C9011B48FFF725FA0022012119487C
:101B6000FFF720FA8021A02000220902C005FFF71C
:101B700019FA8021A02000228900C005FFF712FA7F
:101B80008021A02000224900C005FFF70BFA802128
:101B90000022C9010C48FFF705FA80210022C90084
:101BA0000948FFF7FFF913BD009A01340132009292
:101BB00051E7009A013301320092BFE7801A060014
:101BC000001C00500008005000040050421E00237A
:101BD000FF2A01D8014BC35C1800704700000808B9
:101BE000431E73B505000020FF2B09D8002401AE69
:101BF0006019FFF7EBFFA0550134042CF8D10198D0
:101C000076BD00001348854604200168090E1F2296
:101C1000914205D110480121016010480021016066
:101C2000002103E00E4B5B58435004310D480E4B2E
:101C300042189A42F6D30D4A02E0002313600432A0
:101C40000B4B9A42F9D3FFF741FE00F015F8FFF76E
:101C500017FEFEE700200020341002400000014083
:101C6000CC1D00080000002004000020040000201B
:101C700090000020FEE7000070B500260C4D0D4CD2
:101C8000641BA410A64209D1002600F021F80A4DD9
:101C90000A4C641BA410A64205D170BDB300EB58DA
:101CA00098470136EEE7B300EB5898470136F2E764
:101CB000C41D0008C41D0008C41D0008C81D00087C
:101CC00003008218934200D1704719700133F9E77D
:101CD000F8B5C046F8BC08BC9E467047F8B5C0468B
:081CE000F8BC08BC9E467047E9
:101CE800AC0300087C0300088E030008D00200083B
:101CF8008E030008720300088E030008D002000853
:101D08007C0300087C03000872030008D002000866
:101D1800D8020008D8020008D80200089403000876
:101D28007C0300087C030008500300083404000802
:101D38005003000872030008500300083404000828
:101D48007C0300087C0300087203000834040008C0
:101D5800D8020008D8020008D80200083E0400088B
:101D6800DC0500082C0500082C0500082A050008D9
:101D7800CE050008CE050008C40500082A0500089D
:101D8800CE050008C4050008CE0500082A0500088D
:101D9800D4050008D4050008D40500086406000826
:101DA8000000000000000000010203040607080903
:0C1DB800030406080C1018203000000086
:041DC400E90000082A
:041DC800C10000084E
:041DCC0000002000F3
:0400000508001C05CE
:00000001FF
